{
  "contractName": "Bank",
  "abi": [
    {
      "inputs": [],
      "payable": false,
      "stateMutability": "nonpayable",
      "type": "constructor"
    },
    {
      "constant": true,
      "inputs": [],
      "name": "getBalance",
      "outputs": [
        {
          "internalType": "int256",
          "name": "",
          "type": "int256"
        }
      ],
      "payable": false,
      "stateMutability": "view",
      "type": "function"
    },
    {
      "constant": false,
      "inputs": [
        {
          "internalType": "int256",
          "name": "amt",
          "type": "int256"
        }
      ],
      "name": "withdraw",
      "outputs": [],
      "payable": false,
      "stateMutability": "nonpayable",
      "type": "function"
    },
    {
      "constant": false,
      "inputs": [
        {
          "internalType": "int256",
          "name": "amt",
          "type": "int256"
        }
      ],
      "name": "deposit",
      "outputs": [],
      "payable": false,
      "stateMutability": "nonpayable",
      "type": "function"
    }
  ],
  "bytecode": "0x608060405234801561001057600080fd5b506000808190555061010d806100276000396000f3fe6080604052348015600f57600080fd5b5060043610603c5760003560e01c806312065fe01460415780637e62eab814605d578063f04991f0146088575b600080fd5b604760b3565b6040518082815260200191505060405180910390f35b608660048036036020811015607157600080fd5b810190808035906020019092919050505060bc565b005b60b160048036036020811015609c57600080fd5b810190808035906020019092919050505060ca565b005b60008054905090565b806000540360008190555050565b80600054016000819055505056fea265627a7a72315820cb54cc4b4e23082556d8b11d52082c50847b1817b9773a44e5f445e5a87442b764736f6c63430005100032",
  "source": "pragma solidity ^0.5.1;\r\n\r\ncontract Bank\r\n{\r\n    int bal;\r\n    constructor () public\r\n    {\r\n        bal = 0;\r\n    }\r\n    function getBalance() view public returns(int)\r\n    {\r\n        return bal;\r\n    }\r\n    function withdraw(int amt)public\r\n    {\r\n        bal = bal - amt;\r\n    }\r\n    function deposit(int amt)public\r\n    {\r\n        bal = bal + amt;\r\n    }\r\n}",
  "sourcePath": "C:\\Users\\HP\\Desktop\\updates\\contracts\\Bank.sol",
  "compiler": {
    "name": "solc",
    "version": "0.5.16+commit.9c3226ce.Emscripten.clang"
  },
  "schemaVersion": "3.0.23",
  "updatedAt": "2020-06-21T04:13:28.600Z",
  "devdoc": {
    "methods": {}
  },
  "userdoc": {
    "methods": {}
  }
}