{
  "contractName": "LTO",
  "abi": [
    {
      "inputs": [],
      "payable": false,
      "stateMutability": "nonpayable",
      "type": "constructor"
    },
    {
      "constant": true,
      "inputs": [
        {
          "internalType": "int256",
          "name": "",
          "type": "int256"
        }
      ],
      "name": "myMapping",
      "outputs": [
        {
          "internalType": "int256",
          "name": "vno",
          "type": "int256"
        },
        {
          "internalType": "int256",
          "name": "dno",
          "type": "int256"
        },
        {
          "internalType": "string",
          "name": "name",
          "type": "string"
        },
        {
          "internalType": "string",
          "name": "violation",
          "type": "string"
        },
        {
          "internalType": "string",
          "name": "location",
          "type": "string"
        },
        {
          "internalType": "int256",
          "name": "enno",
          "type": "int256"
        },
        {
          "internalType": "bool",
          "name": "status",
          "type": "bool"
        },
        {
          "internalType": "string",
          "name": "date",
          "type": "string"
        }
      ],
      "payable": false,
      "stateMutability": "view",
      "type": "function"
    },
    {
      "constant": true,
      "inputs": [
        {
          "internalType": "int256",
          "name": "",
          "type": "int256"
        }
      ],
      "name": "myMapping1",
      "outputs": [
        {
          "internalType": "string",
          "name": "due",
          "type": "string"
        },
        {
          "internalType": "int256",
          "name": "payment",
          "type": "int256"
        },
        {
          "internalType": "int256",
          "name": "penalty",
          "type": "int256"
        },
        {
          "internalType": "string",
          "name": "statusl",
          "type": "string"
        }
      ],
      "payable": false,
      "stateMutability": "view",
      "type": "function"
    },
    {
      "constant": false,
      "inputs": [
        {
          "internalType": "int256",
          "name": "_dno",
          "type": "int256"
        },
        {
          "internalType": "string",
          "name": "_name",
          "type": "string"
        },
        {
          "internalType": "string",
          "name": "_violation",
          "type": "string"
        },
        {
          "internalType": "string",
          "name": "_location",
          "type": "string"
        },
        {
          "internalType": "int256",
          "name": "_enno",
          "type": "int256"
        },
        {
          "internalType": "string",
          "name": "_date",
          "type": "string"
        },
        {
          "internalType": "string",
          "name": "_due",
          "type": "string"
        },
        {
          "internalType": "int256",
          "name": "_payment",
          "type": "int256"
        },
        {
          "internalType": "int256",
          "name": "_penalty",
          "type": "int256"
        },
        {
          "internalType": "string",
          "name": "_status1",
          "type": "string"
        }
      ],
      "name": "addEntry",
      "outputs": [],
      "payable": false,
      "stateMutability": "nonpayable",
      "type": "function"
    },
    {
      "constant": true,
      "inputs": [],
      "name": "getlength",
      "outputs": [
        {
          "internalType": "int256",
          "name": "",
          "type": "int256"
        }
      ],
      "payable": false,
      "stateMutability": "view",
      "type": "function"
    },
    {
      "constant": true,
      "inputs": [
        {
          "internalType": "int256",
          "name": "_enno",
          "type": "int256"
        }
      ],
      "name": "getnumoff",
      "outputs": [
        {
          "internalType": "int256",
          "name": "",
          "type": "int256"
        }
      ],
      "payable": false,
      "stateMutability": "view",
      "type": "function"
    },
    {
      "constant": true,
      "inputs": [
        {
          "internalType": "int256",
          "name": "_enno",
          "type": "int256"
        }
      ],
      "name": "getnumvio",
      "outputs": [
        {
          "internalType": "int256",
          "name": "",
          "type": "int256"
        }
      ],
      "payable": false,
      "stateMutability": "view",
      "type": "function"
    },
    {
      "constant": true,
      "inputs": [
        {
          "internalType": "int256",
          "name": "_index",
          "type": "int256"
        }
      ],
      "name": "getdata",
      "outputs": [
        {
          "internalType": "int256",
          "name": "enno",
          "type": "int256"
        },
        {
          "internalType": "string",
          "name": "name",
          "type": "string"
        },
        {
          "internalType": "string",
          "name": "date",
          "type": "string"
        },
        {
          "internalType": "string",
          "name": "violation",
          "type": "string"
        },
        {
          "internalType": "string",
          "name": "location",
          "type": "string"
        }
      ],
      "payable": false,
      "stateMutability": "view",
      "type": "function"
    },
    {
      "constant": true,
      "inputs": [
        {
          "internalType": "int256",
          "name": "_index",
          "type": "int256"
        }
      ],
      "name": "getpdata",
      "outputs": [
        {
          "internalType": "int256",
          "name": "enno",
          "type": "int256"
        },
        {
          "internalType": "int256",
          "name": "dno",
          "type": "int256"
        },
        {
          "internalType": "string",
          "name": "date",
          "type": "string"
        },
        {
          "internalType": "string",
          "name": "violation",
          "type": "string"
        },
        {
          "internalType": "bool",
          "name": "status",
          "type": "bool"
        }
      ],
      "payable": false,
      "stateMutability": "view",
      "type": "function"
    },
    {
      "constant": true,
      "inputs": [
        {
          "internalType": "int256",
          "name": "_index",
          "type": "int256"
        }
      ],
      "name": "getddata",
      "outputs": [
        {
          "internalType": "int256",
          "name": "enno",
          "type": "int256"
        },
        {
          "internalType": "int256",
          "name": "dno",
          "type": "int256"
        },
        {
          "internalType": "string",
          "name": "date",
          "type": "string"
        },
        {
          "internalType": "string",
          "name": "violation",
          "type": "string"
        },
        {
          "internalType": "string",
          "name": "locantion",
          "type": "string"
        },
        {
          "internalType": "bool",
          "name": "status",
          "type": "bool"
        }
      ],
      "payable": false,
      "stateMutability": "view",
      "type": "function"
    },
    {
      "constant": true,
      "inputs": [
        {
          "internalType": "int256",
          "name": "_index",
          "type": "int256"
        }
      ],
      "name": "getppdata",
      "outputs": [
        {
          "internalType": "string",
          "name": "due",
          "type": "string"
        },
        {
          "internalType": "int256",
          "name": "payment",
          "type": "int256"
        },
        {
          "internalType": "int256",
          "name": "penalty",
          "type": "int256"
        },
        {
          "internalType": "string",
          "name": "statusl",
          "type": "string"
        },
        {
          "internalType": "int256",
          "name": "vno",
          "type": "int256"
        }
      ],
      "payable": false,
      "stateMutability": "view",
      "type": "function"
    },
    {
      "constant": false,
      "inputs": [
        {
          "internalType": "int256",
          "name": "_vno",
          "type": "int256"
        },
        {
          "internalType": "int256",
          "name": "_penalty",
          "type": "int256"
        }
      ],
      "name": "payment",
      "outputs": [],
      "payable": false,
      "stateMutability": "nonpayable",
      "type": "function"
    },
    {
      "constant": false,
      "inputs": [
        {
          "internalType": "int256",
          "name": "_dno",
          "type": "int256"
        },
        {
          "internalType": "int256",
          "name": "_vno",
          "type": "int256"
        },
        {
          "internalType": "string",
          "name": "code",
          "type": "string"
        }
      ],
      "name": "tracking",
      "outputs": [],
      "payable": false,
      "stateMutability": "nonpayable",
      "type": "function"
    }
  ],
  "bytecode": "0x608060405234801561001057600080fd5b506000808190555061218f806100276000396000f3fe608060405234801561001057600080fd5b50600436106100b45760003560e01c80636d08f4e8116100715780636d08f4e814610a6c578063a16d359814610c77578063b1e869f514610c95578063be6adf0614610cd7578063f07416dd14610d0f578063ff43ddde14610d51576100b4565b80631fdfad3b146100b95780632cc4aac6146101da5780633580fee6146103725780634f08aeeb1461049e57806357261376146105c65780636346eb7d1461099d575b600080fd5b6100e5600480360360208110156100cf57600080fd5b8101908080359060200190929190505050610f43565b604051808060200185815260200184815260200180602001838103835287818151815260200191508051906020019080838360005b8381101561013557808201518184015260208101905061011a565b50505050905090810190601f1680156101625780820380516001836020036101000a031916815260200191505b50838103825284818151815260200191508051906020019080838360005b8381101561019b578082015181840152602081019050610180565b50505050905090810190601f1680156101c85780820380516001836020036101000a031916815260200191505b50965050505050505060405180910390f35b610206600480360360208110156101f057600080fd5b81019080803590602001909291905050506110a3565b6040518087815260200186815260200180602001806020018060200185151515158152602001848103845288818151815260200191508051906020019080838360005b83811015610264578082015181840152602081019050610249565b50505050905090810190601f1680156102915780820380516001836020036101000a031916815260200191505b50848103835287818151815260200191508051906020019080838360005b838110156102ca5780820151818401526020810190506102af565b50505050905090810190601f1680156102f75780820380516001836020036101000a031916815260200191505b50848103825286818151815260200191508051906020019080838360005b83811015610330578082015181840152602081019050610315565b50505050905090810190601f16801561035d5780820380516001836020036101000a031916815260200191505b50995050505050505050505060405180910390f35b61039e6004803603602081101561038857600080fd5b810190808035906020019092919050505061132a565b60405180868152602001858152602001806020018060200184151515158152602001838103835286818151815260200191508051906020019080838360005b838110156103f85780820151818401526020810190506103dd565b50505050905090810190601f1680156104255780820380516001836020036101000a031916815260200191505b50838103825285818151815260200191508051906020019080838360005b8381101561045e578082015181840152602081019050610443565b50505050905090810190601f16801561048b5780820380516001836020036101000a031916815260200191505b5097505050505050505060405180910390f35b6104ca600480360360208110156104b457600080fd5b81019080803590602001909291905050506114fb565b604051808060200186815260200185815260200180602001848152602001838103835288818151815260200191508051906020019080838360005b83811015610520578082015181840152602081019050610505565b50505050905090810190601f16801561054d5780820380516001836020036101000a031916815260200191505b50838103825285818151815260200191508051906020019080838360005b8381101561058657808201518184015260208101905061056b565b50505050905090810190601f1680156105b35780820380516001836020036101000a031916815260200191505b5097505050505050505060405180910390f35b61099b60048036036101408110156105dd57600080fd5b81019080803590602001909291908035906020019064010000000081111561060457600080fd5b82018360208201111561061657600080fd5b8035906020019184600183028401116401000000008311171561063857600080fd5b91908080601f016020809104026020016040519081016040528093929190818152602001838380828437600081840152601f19601f8201169050808301925050505050505091929192908035906020019064010000000081111561069b57600080fd5b8201836020820111156106ad57600080fd5b803590602001918460018302840111640100000000831117156106cf57600080fd5b91908080601f016020809104026020016040519081016040528093929190818152602001838380828437600081840152601f19601f8201169050808301925050505050505091929192908035906020019064010000000081111561073257600080fd5b82018360208201111561074457600080fd5b8035906020019184600183028401116401000000008311171561076657600080fd5b91908080601f016020809104026020016040519081016040528093929190818152602001838380828437600081840152601f19601f82011690508083019250505050505050919291929080359060200190929190803590602001906401000000008111156107d357600080fd5b8201836020820111156107e557600080fd5b8035906020019184600183028401116401000000008311171561080757600080fd5b91908080601f016020809104026020016040519081016040528093929190818152602001838380828437600081840152601f19601f8201169050808301925050505050505091929192908035906020019064010000000081111561086a57600080fd5b82018360208201111561087c57600080fd5b8035906020019184600183028401116401000000008311171561089e57600080fd5b91908080601f016020809104026020016040519081016040528093929190818152602001838380828437600081840152601f19601f82011690508083019250505050505050919291929080359060200190929190803590602001909291908035906020019064010000000081111561091557600080fd5b82018360208201111561092757600080fd5b8035906020019184600183028401116401000000008311171561094957600080fd5b91908080601f016020809104026020016040519081016040528093929190818152602001838380828437600081840152601f19601f8201169050808301925050505050505091929192905050506116c0565b005b610a6a600480360360608110156109b357600080fd5b810190808035906020019092919080359060200190929190803590602001906401000000008111156109e457600080fd5b8201836020820111156109f657600080fd5b80359060200191846001830284011164010000000083111715610a1857600080fd5b91908080601f016020809104026020016040519081016040528093929190818152602001838380828437600081840152601f19601f8201169050808301925050505050505091929192905050506118a3565b005b610a9860048036036020811015610a8257600080fd5b81019080803590602001909291905050506119c9565b60405180898152602001888152602001806020018060200180602001878152602001861515151581526020018060200185810385528b818151815260200191508051906020019080838360005b83811015610b00578082015181840152602081019050610ae5565b50505050905090810190601f168015610b2d5780820380516001836020036101000a031916815260200191505b5085810384528a818151815260200191508051906020019080838360005b83811015610b66578082015181840152602081019050610b4b565b50505050905090810190601f168015610b935780820380516001836020036101000a031916815260200191505b50858103835289818151815260200191508051906020019080838360005b83811015610bcc578082015181840152602081019050610bb1565b50505050905090810190601f168015610bf95780820380516001836020036101000a031916815260200191505b50858103825286818151815260200191508051906020019080838360005b83811015610c32578082015181840152602081019050610c17565b50505050905090810190601f168015610c5f5780820380516001836020036101000a031916815260200191505b509c5050505050505050505050505060405180910390f35b610c7f611c7e565b6040518082815260200191505060405180910390f35b610cc160048036036020811015610cab57600080fd5b8101908080359060200190929190505050611c87565b6040518082815260200191505060405180910390f35b610d0d60048036036040811015610ced57600080fd5b810190808035906020019092919080359060200190929190505050611cdc565b005b610d3b60048036036020811015610d2557600080fd5b8101908080359060200190929190505050611d66565b6040518082815260200191505060405180910390f35b610d7d60048036036020811015610d6757600080fd5b8101908080359060200190929190505050611dbb565b6040518086815260200180602001806020018060200180602001858103855289818151815260200191508051906020019080838360005b83811015610dcf578082015181840152602081019050610db4565b50505050905090810190601f168015610dfc5780820380516001836020036101000a031916815260200191505b50858103845288818151815260200191508051906020019080838360005b83811015610e35578082015181840152602081019050610e1a565b50505050905090810190601f168015610e625780820380516001836020036101000a031916815260200191505b50858103835287818151815260200191508051906020019080838360005b83811015610e9b578082015181840152602081019050610e80565b50505050905090810190601f168015610ec85780820380516001836020036101000a031916815260200191505b50858103825286818151815260200191508051906020019080838360005b83811015610f01578082015181840152602081019050610ee6565b50505050905090810190601f168015610f2e5780820380516001836020036101000a031916815260200191505b50995050505050505050505060405180910390f35b6002602052806000526040600020600091509050806000018054600181600116156101000203166002900480601f016020809104026020016040519081016040528092919081815260200182805460018160011615610100020316600290048015610fef5780601f10610fc457610100808354040283529160200191610fef565b820191906000526020600020905b815481529060010190602001808311610fd257829003601f168201915b505050505090806001015490806002015490806003018054600181600116156101000203166002900480601f0160208091040260200160405190810160405280929190818152602001828054600181600116156101000203166002900480156110995780601f1061106e57610100808354040283529160200191611099565b820191906000526020600020905b81548152906001019060200180831161107c57829003601f168201915b5050505050905084565b6000806060806060600060016000888152602001908152602001600020600501546001600089815260200190815260200160002060010154600160008a8152602001908152602001600020600701600160008b8152602001908152602001600020600301600160008c8152602001908152602001600020600401600160008d815260200190815260200160002060060160009054906101000a900460ff16838054600181600116156101000203166002900480601f0160208091040260200160405190810160405280929190818152602001828054600181600116156101000203166002900480156111d65780601f106111ab576101008083540402835291602001916111d6565b820191906000526020600020905b8154815290600101906020018083116111b957829003601f168201915b50505050509350828054600181600116156101000203166002900480601f0160208091040260200160405190810160405280929190818152602001828054600181600116156101000203166002900480156112725780601f1061124757610100808354040283529160200191611272565b820191906000526020600020905b81548152906001019060200180831161125557829003601f168201915b50505050509250818054600181600116156101000203166002900480601f01602080910402602001604051908101604052809291908181526020018280546001816001161561010002031660029004801561130e5780601f106112e35761010080835404028352916020019161130e565b820191906000526020600020905b8154815290600101906020018083116112f157829003601f168201915b5050505050915095509550955095509550955091939550919395565b60008060608060006001600087815260200190815260200160002060050154600160008881526020019081526020016000206001015460016000898152602001908152602001600020600701600160008a8152602001908152602001600020600301600160008b815260200190815260200160002060060160009054906101000a900460ff16828054600181600116156101000203166002900480601f0160208091040260200160405190810160405280929190818152602001828054600181600116156101000203166002900480156114455780601f1061141a57610100808354040283529160200191611445565b820191906000526020600020905b81548152906001019060200180831161142857829003601f168201915b50505050509250818054600181600116156101000203166002900480601f0160208091040260200160405190810160405280929190818152602001828054600181600116156101000203166002900480156114e15780601f106114b6576101008083540402835291602001916114e1565b820191906000526020600020905b8154815290600101906020018083116114c457829003601f168201915b505050505091509450945094509450945091939590929450565b6060600080606060006002600087815260200190815260200160002060000160026000888152602001908152602001600020600101546002600089815260200190815260200160002060020154600260008a8152602001908152602001600020600301600160008b815260200190815260200160002060000154848054600181600116156101000203166002900480601f01602080910402602001604051908101604052809291908181526020018280546001816001161561010002031660029004801561160a5780601f106115df5761010080835404028352916020019161160a565b820191906000526020600020905b8154815290600101906020018083116115ed57829003601f168201915b50505050509450818054600181600116156101000203166002900480601f0160208091040260200160405190810160405280929190818152602001828054600181600116156101000203166002900480156116a65780601f1061167b576101008083540402835291602001916116a6565b820191906000526020600020905b81548152906001019060200180831161168957829003601f168201915b505050505091509450945094509450945091939590929450565b8960016000805481526020019081526020016000206001018190555088600160008054815260200190815260200160002060020190805190602001906117079291906120b5565b5087600160008054815260200190815260200160002060030190805190602001906117339291906120b5565b50866001600080548152602001908152602001600020600401908051906020019061175f9291906120b5565b508560016000805481526020019081526020016000206005018190555084600160008054815260200190815260200160002060070190805190602001906117a79291906120b5565b506000600160008054815260200190815260200160002060060160006101000a81548160ff02191690831515021790555060005460016000805481526020019081526020016000206000018190555083600260008054815260200190815260200160002060000190805190602001906118219291906120b5565b50826002600080548152602001908152602001600020600101819055508160026000805481526020019081526020016000206002018190555080600260008054815260200190815260200160002060030190805190602001906118859291906120b5565b50600080815480929190600101919050555050505050505050505050565b6040518060400160405280600681526020017f4f6e68616e640000000000000000000000000000000000000000000000000000815250805190602001208180519060200120141561195b5760008090505b60005481121561195557836001600083815260200190815260200160002060010154141561194857816002600083815260200190815260200160002060030190805190602001906119469291906120b5565b505b80806001019150506118f4565b506119c4565b60008090505b6000548112156119c25782600160008381526020019081526020016000206000015414156119b557816002600083815260200190815260200160002060030190805190602001906119b39291906120b5565b505b8080600101915050611961565b505b505050565b6001602052806000526040600020600091509050806000015490806001015490806002018054600181600116156101000203166002900480601f016020809104026020016040519081016040528092919081815260200182805460018160011615610100020316600290048015611a815780601f10611a5657610100808354040283529160200191611a81565b820191906000526020600020905b815481529060010190602001808311611a6457829003601f168201915b505050505090806003018054600181600116156101000203166002900480601f016020809104026020016040519081016040528092919081815260200182805460018160011615610100020316600290048015611b1f5780601f10611af457610100808354040283529160200191611b1f565b820191906000526020600020905b815481529060010190602001808311611b0257829003601f168201915b505050505090806004018054600181600116156101000203166002900480601f016020809104026020016040519081016040528092919081815260200182805460018160011615610100020316600290048015611bbd5780601f10611b9257610100808354040283529160200191611bbd565b820191906000526020600020905b815481529060010190602001808311611ba057829003601f168201915b5050505050908060050154908060060160009054906101000a900460ff1690806007018054600181600116156101000203166002900480601f016020809104026020016040519081016040528092919081815260200182805460018160011615610100020316600290048015611c745780601f10611c4957610100808354040283529160200191611c74565b820191906000526020600020905b815481529060010190602001808311611c5757829003601f168201915b5050505050905088565b60008054905090565b6000806000905060008090505b600054811215611cd2578360016000838152602001908152602001600020600501541415611cc55781806001019250505b8080600101915050611c94565b5080915050919050565b60008090505b600054811215611d61578260016000838152602001908152602001600020600001541415611d5457816002600083815260200190815260200160002060020181905550600180600083815260200190815260200160002060060160006101000a81548160ff0219169083151502179055505b8080600101915050611ce2565b505050565b6000806000905060008090505b600054811215611db1578360016000838152602001908152602001600020600101541415611da45781806001019250505b8080600101915050611d73565b5080915050919050565b600060608060608060016000878152602001908152602001600020600501546001600088815260200190815260200160002060020160016000898152602001908152602001600020600701600160008a8152602001908152602001600020600301600160008b8152602001908152602001600020600401838054600181600116156101000203166002900480601f016020809104026020016040519081016040528092919081815260200182805460018160011615610100020316600290048015611ec75780601f10611e9c57610100808354040283529160200191611ec7565b820191906000526020600020905b815481529060010190602001808311611eaa57829003601f168201915b50505050509350828054600181600116156101000203166002900480601f016020809104026020016040519081016040528092919081815260200182805460018160011615610100020316600290048015611f635780601f10611f3857610100808354040283529160200191611f63565b820191906000526020600020905b815481529060010190602001808311611f4657829003601f168201915b50505050509250818054600181600116156101000203166002900480601f016020809104026020016040519081016040528092919081815260200182805460018160011615610100020316600290048015611fff5780601f10611fd457610100808354040283529160200191611fff565b820191906000526020600020905b815481529060010190602001808311611fe257829003601f168201915b50505050509150808054600181600116156101000203166002900480601f01602080910402602001604051908101604052809291908181526020018280546001816001161561010002031660029004801561209b5780601f106120705761010080835404028352916020019161209b565b820191906000526020600020905b81548152906001019060200180831161207e57829003601f168201915b505050505090509450945094509450945091939590929450565b828054600181600116156101000203166002900490600052602060002090601f016020900481019282601f106120f657805160ff1916838001178555612124565b82800160010185558215612124579182015b82811115612123578251825591602001919060010190612108565b5b5090506121319190612135565b5090565b61215791905b8082111561215357600081600090555060010161213b565b5090565b9056fea265627a7a72315820bb64ea8d715fcfd550108492d8ff0a45ef452c8fadd0b8cb42c508ad8213146164736f6c63430005100032",
  "source": "pragma solidity >=0.4.21 <0.7.0;\r\n\r\ncontract LTO\r\n{\r\n    int index;\r\n    constructor () public\r\n    {\r\n        index = 0;\r\n    }\r\n     struct data {\r\n         int vno;\r\n         int dno;\r\n         string name;\r\n        string violation;\r\n        string location;\r\n        int enno;\r\n        bool status;\r\n        string date;\r\n    }\r\n    \r\n    struct data1 {\r\n        string due;\r\n        int payment;\r\n        int penalty;\r\n        string statusl;\r\n    }\r\n    mapping (int => data)public myMapping;\r\n    mapping (int => data1)public myMapping1;\r\n    function addEntry(int _dno,string memory _name,string memory _violation,string memory _location,int _enno,\r\n    string memory _date,string memory _due,int _payment,int _penalty,string memory _status1) \r\n    public {\r\n        myMapping[index].dno = _dno;\r\n        myMapping[index].name = _name;\r\n        myMapping[index].violation = _violation;\r\n        myMapping[index].location = _location;\r\n        myMapping[index].enno = _enno;\r\n        myMapping[index].date = _date;\r\n        myMapping[index].status = false;\r\n        myMapping[index].vno = index;\r\n        myMapping1[index].due = _due;\r\n        myMapping1[index].payment = _payment;\r\n        myMapping1[index].penalty = _penalty;\r\n        myMapping1[index].statusl = _status1;\r\n        index++;\r\n    }\r\n    \r\n    function getlength() public view returns(int)\r\n    {\r\n        return index;\r\n    }\r\n    function getnumoff(int _enno) public view returns(int)\r\n    {\r\n        int num = 0;\r\n        for(int x=0;x < index;x++)\r\n        {\r\n            if(myMapping[x].enno==_enno)\r\n            {\r\n                num++;\r\n            }\r\n        }\r\n        return num;\r\n    }\r\n    \r\n    function getnumvio(int _enno) public view returns(int)\r\n    {\r\n        int num = 0;\r\n        for(int x=0;x < index;x++)\r\n        {\r\n            if(myMapping[x].dno == _enno)\r\n            {\r\n                num++;\r\n            }\r\n        }\r\n        return num;\r\n    }\r\n    function getdata(int _index)public view returns(int enno,string memory name,string memory date,string memory violation,\r\n    string memory location)\r\n    {\r\n        return (myMapping[_index].enno,myMapping[_index].name, myMapping[_index].date,myMapping[_index].violation,myMapping[_index].location);\r\n    }\r\n    function getpdata(int _index)public view returns(int enno,int dno,string memory date,string memory violation,\r\n    bool status)\r\n    {\r\n        return (myMapping[_index].enno,myMapping[_index].dno, myMapping[_index].date,myMapping[_index].violation,myMapping[_index].status);\r\n    }\r\n    function getddata(int _index)public view returns(int enno,int dno,string memory date,string memory violation,string memory locantion,\r\n    bool status)\r\n    {\r\n        return (myMapping[_index].enno,myMapping[_index].dno, myMapping[_index].date,myMapping[_index].violation,myMapping[_index].location,\r\n        myMapping[_index].status);\r\n    }\r\n    function getppdata(int _index)public view returns(string memory due,int payment,int penalty,string memory statusl,int vno)\r\n    {\r\n        return (myMapping1[_index].due,myMapping1[_index].payment,myMapping1[_index].penalty,myMapping1[_index].statusl,myMapping[_index].vno);\r\n    }\r\n    \r\n    function payment(int _vno,int _penalty)public\r\n    {\r\n        for(int x=0;x < index;x++)\r\n        {\r\n            if(myMapping[x].vno == _vno)\r\n            {\r\n                myMapping1[x].penalty = _penalty;\r\n                myMapping[x].status = true;\r\n            }\r\n        }\r\n    }\r\n     function tracking(int _dno,int _vno,string memory code)public\r\n    {\r\n        if(keccak256(bytes(code)) == keccak256(bytes(\"Onhand\")))\r\n        {\r\n        for(int x=0;x < index;x++)\r\n        {\r\n                if(myMapping[x].dno == _dno)\r\n                {\r\n                    myMapping1[x].statusl = code;\r\n                }\r\n        }\r\n        }\r\n        else\r\n        {\r\n        for(int x=0;x < index;x++)\r\n        {\r\n                if(myMapping[x].vno == _vno)\r\n                {\r\n                    myMapping1[x].statusl = code;\r\n                }\r\n        }\r\n        }\r\n    }\r\n}\r\n\r\n\r\n\r\n\r\n",
  "sourcePath": "C:\\Users\\HP\\Desktop\\Trappic 9.1\\contracts\\LTO.sol",
  "compiler": {
    "name": "solc",
    "version": "0.5.16+commit.9c3226ce.Emscripten.clang"
  },
  "schemaVersion": "3.0.23",
  "updatedAt": "2020-07-13T08:39:41.981Z",
  "networkType": "ethereum",
  "devdoc": {
    "methods": {}
  },
  "userdoc": {
    "methods": {}
  }
}