{
  "contractName": "sample",
  "abi": [
    {
      "inputs": [],
      "payable": false,
      "stateMutability": "nonpayable",
      "type": "constructor"
    },
    {
      "constant": true,
      "inputs": [],
      "name": "index",
      "outputs": [
        {
          "internalType": "int256",
          "name": "",
          "type": "int256"
        }
      ],
      "payable": false,
      "stateMutability": "view",
      "type": "function"
    },
    {
      "constant": true,
      "inputs": [
        {
          "internalType": "int256",
          "name": "",
          "type": "int256"
        }
      ],
      "name": "myMapping",
      "outputs": [
        {
          "internalType": "string",
          "name": "name",
          "type": "string"
        },
        {
          "internalType": "bool",
          "name": "isSet",
          "type": "bool"
        }
      ],
      "payable": false,
      "stateMutability": "view",
      "type": "function"
    },
    {
      "constant": false,
      "inputs": [
        {
          "internalType": "string",
          "name": "name",
          "type": "string"
        }
      ],
      "name": "addEntry",
      "outputs": [],
      "payable": false,
      "stateMutability": "nonpayable",
      "type": "function"
    },
    {
      "constant": true,
      "inputs": [
        {
          "internalType": "int256",
          "name": "n",
          "type": "int256"
        }
      ],
      "name": "display",
      "outputs": [
        {
          "internalType": "string",
          "name": "",
          "type": "string"
        }
      ],
      "payable": false,
      "stateMutability": "view",
      "type": "function"
    },
    {
      "constant": true,
      "inputs": [],
      "name": "getname",
      "outputs": [
        {
          "internalType": "string",
          "name": "",
          "type": "string"
        }
      ],
      "payable": false,
      "stateMutability": "view",
      "type": "function"
    },
    {
      "constant": true,
      "inputs": [],
      "name": "getlength",
      "outputs": [
        {
          "internalType": "int256",
          "name": "",
          "type": "int256"
        }
      ],
      "payable": false,
      "stateMutability": "view",
      "type": "function"
    }
  ],
  "bytecode": "0x608060405234801561001057600080fd5b50600080819055506106c9806100276000396000f3fe608060405234801561001057600080fd5b50600436106100625760003560e01c806317ce42bd146100675780632986c0e5146101225780636d08f4e814610140578063892f50fc146101f2578063a16d359814610299578063c6ea59b9146102b7575b600080fd5b6101206004803603602081101561007d57600080fd5b810190808035906020019064010000000081111561009a57600080fd5b8201836020820111156100ac57600080fd5b803590602001918460018302840111640100000000831117156100ce57600080fd5b91908080601f016020809104026020016040519081016040528093929190818152602001838380828437600081840152601f19601f82011690508083019250505050505050919291929050505061033a565b005b61012a6103a9565b6040518082815260200191505060405180910390f35b61016c6004803603602081101561015657600080fd5b81019080803590602001909291905050506103af565b604051808060200183151515158152602001828103825284818151815260200191508051906020019080838360005b838110156101b657808201518184015260208101905061019b565b50505050905090810190601f1680156101e35780820380516001836020036101000a031916815260200191505b50935050505060405180910390f35b61021e6004803603602081101561020857600080fd5b8101908080359060200190929190505050610478565b6040518080602001828103825283818151815260200191508051906020019080838360005b8381101561025e578082015181840152602081019050610243565b50505050905090810190601f16801561028b5780820380516001836020036101000a031916815260200191505b509250505060405180910390f35b6102a1610530565b6040518082815260200191505060405180910390f35b6102bf610539565b6040518080602001828103825283818151815260200191508051906020019080838360005b838110156102ff5780820151818401526020810190506102e4565b50505050905090810190601f16801561032c5780820380516001836020036101000a031916815260200191505b509250505060405180910390f35b60018060008054815260200190815260200160002060010160006101000a81548160ff02191690831515021790555080600160008054815260200190815260200160002060000190805190602001906103949291906105ef565b50600080815480929190600101919050555050565b60005481565b6001602052806000526040600020600091509050806000018054600181600116156101000203166002900480601f01602080910402602001604051908101604052809291908181526020018280546001816001161561010002031660029004801561045b5780601f106104305761010080835404028352916020019161045b565b820191906000526020600020905b81548152906001019060200180831161043e57829003601f168201915b5050505050908060010160009054906101000a900460ff16905082565b6060600160008381526020019081526020016000206000018054600181600116156101000203166002900480601f0160208091040260200160405190810160405280929190818152602001828054600181600116156101000203166002900480156105245780601f106104f957610100808354040283529160200191610524565b820191906000526020600020905b81548152906001019060200180831161050757829003601f168201915b50505050509050919050565b60008054905090565b6060600160008081526020019081526020016000206000018054600181600116156101000203166002900480601f0160208091040260200160405190810160405280929190818152602001828054600181600116156101000203166002900480156105e55780601f106105ba576101008083540402835291602001916105e5565b820191906000526020600020905b8154815290600101906020018083116105c857829003601f168201915b5050505050905090565b828054600181600116156101000203166002900490600052602060002090601f016020900481019282601f1061063057805160ff191683800117855561065e565b8280016001018555821561065e579182015b8281111561065d578251825591602001919060010190610642565b5b50905061066b919061066f565b5090565b61069191905b8082111561068d576000816000905550600101610675565b5090565b9056fea265627a7a72315820cbf529b14b1c95f863a37a4a56d35fa8e9c6b61248fd1d9f64b0625639cf8db064736f6c63430005100032",
  "source": "pragma solidity >=0.4.21 <0.7.0;\r\n\r\ncontract sample\r\n{\r\n    int public index;\r\n    constructor () public\r\n    {\r\n        index = 0;\r\n    }\r\n     struct data {\r\n        string name;\r\n        bool isSet;\r\n    }\r\n    mapping (int => data) public myMapping;\r\n    function addEntry(string memory name) public {\r\n\r\n        myMapping[index].isSet = true;\r\n        myMapping[index].name = name;\r\n        index++;\r\n    }\r\n    function display(int n) public view returns(string memory)\r\n    {\r\n        return myMapping[n].name;\r\n    }\r\n    function getname() public view returns(string memory)\r\n    {\r\n        return myMapping[0].name;\r\n    }\r\n    function getlength() public view returns(int)\r\n    {\r\n        return index;\r\n    }\r\n}\r\n\r\n\r\n\r\n\r\n",
  "sourcePath": "C:\\Users\\HP\\Desktop\\Trappic 9.1\\contracts\\sample.sol",
  "compiler": {
    "name": "solc",
    "version": "0.5.16+commit.9c3226ce.Emscripten.clang"
  },
  "schemaVersion": "3.0.23",
  "updatedAt": "2020-07-13T08:39:42.004Z",
  "networkType": "ethereum",
  "devdoc": {
    "methods": {}
  },
  "userdoc": {
    "methods": {}
  }
}